{
  "_format": "hh-sol-artifact-1",
  "contractName": "VaxCard",
  "sourceName": "contracts/VaxCard.sol",
  "abi": [
    {
      "inputs": [
        {
          "internalType": "string",
          "name": "_name",
          "type": "string"
        },
        {
          "internalType": "string",
          "name": "_date",
          "type": "string"
        },
        {
          "internalType": "string",
          "name": "_vax",
          "type": "string"
        },
        {
          "internalType": "string",
          "name": "_vax_type",
          "type": "string"
        },
        {
          "internalType": "bool",
          "name": "_vaxed",
          "type": "bool"
        }
      ],
      "name": "addVax",
      "outputs": [
        {
          "internalType": "bool",
          "name": "",
          "type": "bool"
        }
      ],
      "stateMutability": "nonpayable",
      "type": "function"
    },
    {
      "inputs": [
        {
          "internalType": "string",
          "name": "_name",
          "type": "string"
        },
        {
          "internalType": "string",
          "name": "_date",
          "type": "string"
        },
        {
          "internalType": "string",
          "name": "_vax",
          "type": "string"
        },
        {
          "internalType": "string",
          "name": "_vax_type",
          "type": "string"
        },
        {
          "internalType": "bool",
          "name": "_vaxed",
          "type": "bool"
        }
      ],
      "name": "editVax",
      "outputs": [
        {
          "internalType": "bool",
          "name": "",
          "type": "bool"
        }
      ],
      "stateMutability": "nonpayable",
      "type": "function"
    },
    {
      "inputs": [],
      "name": "ping",
      "outputs": [
        {
          "internalType": "string",
          "name": "",
          "type": "string"
        }
      ],
      "stateMutability": "view",
      "type": "function"
    },
    {
      "inputs": [
        {
          "internalType": "string",
          "name": "_name",
          "type": "string"
        }
      ],
      "name": "toggleVax",
      "outputs": [
        {
          "internalType": "string",
          "name": "",
          "type": "string"
        },
        {
          "internalType": "bool",
          "name": "",
          "type": "bool"
        }
      ],
      "stateMutability": "nonpayable",
      "type": "function"
    },
    {
      "inputs": [],
      "name": "vaxee",
      "outputs": [
        {
          "internalType": "address",
          "name": "",
          "type": "address"
        }
      ],
      "stateMutability": "view",
      "type": "function"
    },
    {
      "inputs": [
        {
          "internalType": "string",
          "name": "",
          "type": "string"
        }
      ],
      "name": "vaxers",
      "outputs": [
        {
          "internalType": "string",
          "name": "name",
          "type": "string"
        },
        {
          "internalType": "string",
          "name": "date",
          "type": "string"
        },
        {
          "internalType": "string",
          "name": "vax",
          "type": "string"
        },
        {
          "internalType": "string",
          "name": "vax_type",
          "type": "string"
        },
        {
          "internalType": "bool",
          "name": "vaxed",
          "type": "bool"
        }
      ],
      "stateMutability": "view",
      "type": "function"
    }
  ],
  "bytecode": "0x6080604052348015600f57600080fd5b50610ec28061001f6000396000f3fe608060405234801561001057600080fd5b50600436106100625760003560e01c8063303ccf0e146100675780633ab4df7b14610085578063524af58b146100b55780635c36b186146100e95780638e24967914610107578063f4b3ad6714610138575b600080fd5b61006f610168565b60405161007c9190610706565b60405180910390f35b61009f600480360381019061009a91906108b3565b61018c565b6040516100ac91906109ad565b60405180910390f35b6100cf60048036038101906100ca91906109c8565b61025d565b6040516100e0959493929190610a90565b60405180910390f35b6100f16104d6565b6040516100fe9190610aff565b60405180910390f35b610121600480360381019061011c91906109c8565b610513565b60405161012f929190610b21565b60405180910390f35b610152600480360381019061014d91906108b3565b6105ef565b60405161015f91906109ad565b60405180910390f35b60008054906101000a900473ffffffffffffffffffffffffffffffffffffffff1681565b60006040518060a001604052808781526020018681526020018581526020018481526020018315158152506001876040516101c79190610b8d565b908152602001604051809103902060008201518160000190816101ea9190610dba565b5060208201518160010190816102009190610dba565b5060408201518160020190816102169190610dba565b50606082015181600301908161022c9190610dba565b5060808201518160040160006101000a81548160ff0219169083151502179055509050506001905095945050505050565b60018180516020810182018051848252602083016020850120818352809550505050505060009150905080600001805461029690610bd3565b80601f01602080910402602001604051908101604052809291908181526020018280546102c290610bd3565b801561030f5780601f106102e45761010080835404028352916020019161030f565b820191906000526020600020905b8154815290600101906020018083116102f257829003601f168201915b50505050509080600101805461032490610bd3565b80601f016020809104026020016040519081016040528092919081815260200182805461035090610bd3565b801561039d5780601f106103725761010080835404028352916020019161039d565b820191906000526020600020905b81548152906001019060200180831161038057829003601f168201915b5050505050908060020180546103b290610bd3565b80601f01602080910402602001604051908101604052809291908181526020018280546103de90610bd3565b801561042b5780601f106104005761010080835404028352916020019161042b565b820191906000526020600020905b81548152906001019060200180831161040e57829003601f168201915b50505050509080600301805461044090610bd3565b80601f016020809104026020016040519081016040528092919081815260200182805461046c90610bd3565b80156104b95780601f1061048e576101008083540402835291602001916104b9565b820191906000526020600020905b81548152906001019060200180831161049c57829003601f168201915b5050505050908060040160009054906101000a900460ff16905085565b60606040518060400160405280600481526020017f706f6e6700000000000000000000000000000000000000000000000000000000815250905090565b606060006001836040516105279190610b8d565b908152602001604051809103902060040160009054906101000a900460ff16156001846040516105579190610b8d565b908152602001604051809103902060040160006101000a81548160ff02191690831515021790555060018360405161058f9190610b8d565b908152602001604051809103902060040160009054906101000a900460ff16156040518060400160405280600781526020017f746f67676c6564000000000000000000000000000000000000000000000000008152509091509150915091565b6000806040518060a0016040528088815260200187815260200186815260200185815260200184151581525090508060018860405161062e9190610b8d565b908152602001604051809103902060008201518160000190816106519190610dba565b5060208201518160010190816106679190610dba565b50604082015181600201908161067d9190610dba565b5060608201518160030190816106939190610dba565b5060808201518160040160006101000a81548160ff021916908315150217905550905050600191505095945050505050565b600073ffffffffffffffffffffffffffffffffffffffff82169050919050565b60006106f0826106c5565b9050919050565b610700816106e5565b82525050565b600060208201905061071b60008301846106f7565b92915050565b6000604051905090565b600080fd5b600080fd5b600080fd5b600080fd5b6000601f19601f8301169050919050565b7f4e487b7100000000000000000000000000000000000000000000000000000000600052604160045260246000fd5b6107888261073f565b810181811067ffffffffffffffff821117156107a7576107a6610750565b5b80604052505050565b60006107ba610721565b90506107c6828261077f565b919050565b600067ffffffffffffffff8211156107e6576107e5610750565b5b6107ef8261073f565b9050602081019050919050565b82818337600083830152505050565b600061081e610819846107cb565b6107b0565b90508281526020810184848401111561083a5761083961073a565b5b6108458482856107fc565b509392505050565b600082601f83011261086257610861610735565b5b813561087284826020860161080b565b91505092915050565b60008115159050919050565b6108908161087b565b811461089b57600080fd5b50565b6000813590506108ad81610887565b92915050565b600080600080600060a086880312156108cf576108ce61072b565b5b600086013567ffffffffffffffff8111156108ed576108ec610730565b5b6108f98882890161084d565b955050602086013567ffffffffffffffff81111561091a57610919610730565b5b6109268882890161084d565b945050604086013567ffffffffffffffff81111561094757610946610730565b5b6109538882890161084d565b935050606086013567ffffffffffffffff81111561097457610973610730565b5b6109808882890161084d565b92505060806109918882890161089e565b9150509295509295909350565b6109a78161087b565b82525050565b60006020820190506109c2600083018461099e565b92915050565b6000602082840312156109de576109dd61072b565b5b600082013567ffffffffffffffff8111156109fc576109fb610730565b5b610a088482850161084d565b91505092915050565b600081519050919050565b600082825260208201905092915050565b60005b83811015610a4b578082015181840152602081019050610a30565b60008484015250505050565b6000610a6282610a11565b610a6c8185610a1c565b9350610a7c818560208601610a2d565b610a858161073f565b840191505092915050565b600060a0820190508181036000830152610aaa8188610a57565b90508181036020830152610abe8187610a57565b90508181036040830152610ad28186610a57565b90508181036060830152610ae68185610a57565b9050610af5608083018461099e565b9695505050505050565b60006020820190508181036000830152610b198184610a57565b905092915050565b60006040820190508181036000830152610b3b8185610a57565b9050610b4a602083018461099e565b9392505050565b600081905092915050565b6000610b6782610a11565b610b718185610b51565b9350610b81818560208601610a2d565b80840191505092915050565b6000610b998284610b5c565b915081905092915050565b7f4e487b7100000000000000000000000000000000000000000000000000000000600052602260045260246000fd5b60006002820490506001821680610beb57607f821691505b602082108103610bfe57610bfd610ba4565b5b50919050565b60008190508160005260206000209050919050565b60006020601f8301049050919050565b600082821b905092915050565b600060088302610c667fffffffffffffffffffffffffffffffffffffffffffffffffffffffffffffffff82610c29565b610c708683610c29565b95508019841693508086168417925050509392505050565b6000819050919050565b6000819050919050565b6000610cb7610cb2610cad84610c88565b610c92565b610c88565b9050919050565b6000819050919050565b610cd183610c9c565b610ce5610cdd82610cbe565b848454610c36565b825550505050565b600090565b610cfa610ced565b610d05818484610cc8565b505050565b5b81811015610d2957610d1e600082610cf2565b600181019050610d0b565b5050565b601f821115610d6e57610d3f81610c04565b610d4884610c19565b81016020851015610d57578190505b610d6b610d6385610c19565b830182610d0a565b50505b505050565b600082821c905092915050565b6000610d9160001984600802610d73565b1980831691505092915050565b6000610daa8383610d80565b9150826002028217905092915050565b610dc382610a11565b67ffffffffffffffff811115610ddc57610ddb610750565b5b610de68254610bd3565b610df1828285610d2d565b600060209050601f831160018114610e245760008415610e12578287015190505b610e1c8582610d9e565b865550610e84565b601f198416610e3286610c04565b60005b82811015610e5a57848901518255600182019150602085019450602081019050610e35565b86831015610e775784890151610e73601f891682610d80565b8355505b6001600288020188555050505b50505050505056fea26469706673582212203c0876f7217c3f0e2106fcd3506a349288931668c574c2e7986cbf7a15dfdf0164736f6c634300081b0033",
  "linkReferences": {},
  "deployedLinkReferences": {}
}